:100000000C945D000C9485000C9485000C94850084
:100010000C9485000C9485000C9485000C9485004C
:100020000C9485000C9485000C9485000C9485003C
:100030000C9485000C9485000C9485000C9485002C
:100040000C94FA050C9485000C9485080C94B70860
:100050000C9485000C9485000C9485000C9485000C
:100060000C9485000C94850000000008000201003B
:100070000003040700000000000000000102040863
:100080001020408001020408102001020408102002
:10009000040404040404040402020202020203032E
:1000A0000303030300000000250028002B000000CC
:1000B0000000240027002A00E70811241FBECFEF0C
:1000C000D8E0DEBFCDBF11E0A0E0B1E0ECEFF9E198
:1000D00002C005900D92A237B107D9F722E0A2E73E
:1000E000B1E001C01D92A032B207E1F710E0CAEB07
:1000F000D0E004C02297FE010E945D0BC83BD107EF
:10010000C9F70E942B090C94FC0C0C940000809100
:10011000740190917501FC01E855FF4F2081211178
:1001200002C00C948A0408950F931F93CF93DF931A
:100130008DEB90E00E943A09EC010E946101D0939E
:100140007501C093740183E190E00E943A09EC01CB
:1001500020E030E0A90160E070E00E94DE05D0936D
:100160007301C0937201C0E0D0E0E0917401F0919E
:1001700075018E01085F1F4F000F111FE00FF11F67
:1001800061E080810E94D106E0917401F0917501D7
:10019000CE01880F991FE80FF91F61E080810E944E
:1001A000D106E0917401F0917501E00FF11F61E05B
:1001B00080810E940A072196C830D105B1F660916E
:1001C00074017091750180E090E0E1E0F0E020E0E2
:1001D00030E0AB01480F591FDA01A20FB31F91960F
:1001E000FC93EE9390972E5F3F4F20313105A1F79E
:1001F00040968038910559F767E870E08091720168
:10020000909173010E94F6058091720190917301A3
:10021000DC01ED91FC910190F081E02D44EF51E083
:1002200060E070E0099526E040E855E260E070E0AB
:100230008FE791E0DF91CF911F910F910C942308EC
:100240000F931F93CF93DF93C0917201D0917301ED
:10025000E881F981028113810E944406AB01BC014F
:10026000CE01F8010995882359F08091720190918F
:100270007301DC01ED91FC910480F581E02D09957D
:1002800080917401909175010E94FF018091740129
:1002900090917501FC01E855FF4F208121110CC0A0
:1002A0000E9459028091740190917501DF91CF9164
:1002B0001F910F910C94C502DF91CF911F910F9167
:1002C0000895EF92FF920F931F93CF93DF93EC016A
:1002D00080E1EBE0F1E0DE0101900D928A95E1F71B
:1002E00080E1EBE1F1E0DE01509601900D928A95FC
:1002F000E1F7FE01E056FF4F24E030E03183208338
:10030000329683E090E0918380833296318320831C
:10031000329691838083329610827E012BEBE20E1F
:10032000F11C81E090E0D7018D939C9382E090E0F6
:100330000E943C098E0107551F4FF801918380836D
:10034000D7018D919C918138BFE39B0718F4880FEA
:10035000991F02C08FEF9FEF0E943C09FE01E555F7
:10036000FF4F91838083D801ED91FC9125E030E02F
:1003700031832083FC01318320830E9444060E9444
:10038000940927E030E040E050E060E070E0CB010D
:100390000E94C009FE01E355FF4FAB01662757FDE0
:1003A0006095762F408351836283738327E030E02A
:1003B00040E050E060E070E0CB010E94C009FE0127
:1003C000EF54FF4FAB01662757FD6095762F4083B2
:1003D000518362837383349611821082C954DF4F34
:1003E00040E050E060E87FE3488359836A837B8381
:1003F000DF91CF911F910F91FF90EF9008959F9201
:10040000AF92BF92CF92DF92EF92FF920F931F9322
:10041000CF93DF93EC018EE00E948B06BC0188270E
:1004200077FD8095982F1F921F921F9237E0932E91
:100430009F92A12CB12C6501EE24EA9413E0F12ED9
:1004400000E010E020E030E0A9010E94DC09FE019C
:10045000E056FF4F27E030E0261B370B3183208327
:100460008FE00E948B06BC01882777FD8095982F2E
:100470001F921F921F929F9220E030E0A9010E94DC
:10048000DC09CE55DF4F798368838DB79EB7089618
:100490000FB6F8949EBF0FBE8DBFDF91CF911F9115
:1004A0000F91FF90EF90DF90CF90BF90AF909F9013
:1004B00008956F927F928F929F92AF92BF92CF9248
:1004C000DF92EF92FF920F931F93CF93DF93EC0194
:1004D000DC01AF54BF4FFC01E355FF4F0190F081A9
:1004E000E02D63E0EE0FFF1F6A95E1F78D919C917F
:1004F000E80FF91F7096EE0FFF1FEC0FFD1F118222
:1005000010826E01E12CF12C460161E0F601808140
:100510000E940A078E0158E0A52EB12CF801EE0DBD
:10052000FF1D60A071A0662DF80180890E940A0756
:10053000672829F461E0F80180890E940A07F1E048
:10054000AF1AB1080E5F1F4FA114B10439F782E052
:10055000C80ED11C60E0F40180810E940A07F0E11E
:10056000EF0EF11C80E8E816F10471F6DF91CF91EF
:100570001F910F91FF90EF90DF90CF90BF90AF90C1
:100580009F908F907F906F9008950F931F93CF93BC
:10059000DF93FC01E056FF4F2081318132962430F9
:1005A000310531F4408151814330510509F45CC07B
:1005B0008C010C551F4FD8014D915C9111971296EB
:1005C0004217530749F46D917C91119740815181F5
:1005D0006417750701F541C0241735076CF4AC01A9
:1005E0004B545F4FEA0168817981672BA1F082E06B
:1005F00090E09983888331C04217530764F4AC01BB
:100600004B545F4FEA01688179816230710519F0BE
:100610001982188222C06D917C911197408151817D
:10062000461757075CF48B549F4FEC014881598162
:100630004130510591F043E050E00DC0641775075B
:1006400064F48B549F4FEC0148815981433051052C
:1006500021F041E050E059834883E8013983288341
:10066000808191818D939C93DF91CF911F910F9108
:1006700008954F925F926F927F92AF92BF92CF9206
:10068000DF92EF92FF920F931F93CF93DF935C0162
:100690007C0129EAE20EF11CD701ED91FC91408129
:1006A00051818A01222717FD2095322F6C01BDEA66
:1006B000CB0ED11CF60180819181A281B3810817F4
:1006C00019072A073B0709F0D1C0850105551F4FBF
:1006D000D801ED91FC91208131812901662457FCDC
:1006E0006094762CE501CF54DF4F88819981AA81EF
:1006F000BB81481659066A067B0609F0B7C0FA01A5
:10070000A3E0EE0FFF1FAA95E1F7E20FF31F70962B
:10071000EE0FFF1FEA0DFB1D81E090E091838083C7
:1007200027E030E040E050E060E070E0CB010E9464
:10073000C009F601608371838283938327E030E0F0
:1007400040E050E060E070E0CB010E94C0096883A7
:1007500079838A839B836501FBEBCF0ED11CD60185
:10076000CD91DC9111972196CD93DC93CE0163E07E
:1007700070E00E94E70A0197A1F4B7EBAB0EB11C41
:100780002AE939E949E95FE3F501608171818281F4
:1007900093810E94740AD5016D937D938D939C93F0
:1007A0001397C138BFE3DB0720F4CE01880F991FF0
:1007B00002C08FEF9FEF0E943C09EC01F60180819F
:1007C00091818138FFE39F0718F4880F991F02C0B9
:1007D0008FEF9FEF0E943C095C01BE016E5F7F4F6F
:1007E00080E090E021E030E0F60140815181D701C6
:1007F00024173507ECF4ED91FC91E80FF91F4081C7
:100800005181FB0141935193BF01AC014E5F5F4F9A
:10081000D801ED91FC91E80FF91F80819181F501DC
:10082000E40FF51F918380832F5F3F4FCA01DCCF18
:100830008D919C91009711F00E943E09F8018081F2
:100840009181009711F00E943E09D701CD93DC936E
:10085000F801B182A0828A819B8199838883D50126
:1008600012968D919C9113978D939C93DF91CF91CC
:100870001F910F91FF90EF90DF90CF90BF90AF90BE
:100880007F906F905F904F900895CF92DF92FF928C
:100890000F931F93CF93DF93FC01E554FF4F4081EB
:1008A00051814530510574F172970190F081E02D2E
:1008B00060817181389624E030E06C01ABEACA0EA9
:1008C000D11C88559F4FFF24F3948901000F111FFD
:1008D000A191B191A617B70781F4E601A881B9816A
:1008E0000A0F1B1FE801088119810D90BC91A02DF2
:1008F0000A171B0711F4DC01FC922F5F3F4F2417EE
:10090000350719F7DF91CF911F910F91FF90DF907D
:10091000CF9008958F929F92AF92BF92CF92DF9225
:10092000EF92FF920F931F93CF93DF93EC016C0133
:100930002BEBC20ED11CD6014D915C9180E090E072
:100940008E0107551F4FFE01E555FF4F7F0161E006
:1009500070E0841795071CF59C01220F331FD80106
:10096000ED91FC91E20FF31F0190F081E02DD70192
:10097000AD90BC90A20EB31ED5012D913C91A3E089
:10098000EE0FFF1FAA95E1F7E20FF31F7096EE0F2F
:10099000FF1FEC0FFD1F718360830196DACFF80112
:1009A000A081B181AD90BC901197F7012081318178
:1009B000F90180809180CE018B549F4FFC01808192
:1009C00091818130910561F02CF4892B61F5C5018D
:1009D000019609C08230910571F00397C1F023C0E0
:1009E000C4010196D90111969C938E9308970CF13E
:1009F0001D921C921EC0C501019711969C938E9367
:100A000097FF17C087E090E08D939C9312C0C401BC
:100A10000197F9019183808397FF0BC087E090E0F5
:100A20009183808306C06BE271E08FE791E00E94C2
:100A30008209D6018D919C919C01225031098150EF
:100A40009048880F991F37FD31C0AC0142505109C1
:100A500021153105E9F0F80160817181FB01E40F96
:100A6000F51F0190F081E02DDB01A80FB91FED9378
:100A7000FC93D7016D917C91FB01E40FF51F019070
:100A8000F081E02DDB01A80FB91FED93FC930AC0A4
:100A9000D801ED91FC91B382A282D701ED91FC9136
:100AA0009382828221503109CA01CDCFCE010E94AA
:100AB0004504CE010E943903F6014081518180E056
:100AC00090E0841795071CF59C01220F331FD80175
:100AD000ED91FC91E20FF31F0190F081E02DD70121
:100AE0006D917C91620F731FDB012D913C9173E03E
:100AF000EE0FFF1F7A95E1F7E20FF31F7096EE0FEE
:100B0000FF1FEC0FFD1F118210820196DACFDF91DB
:100B1000CF911F910F91FF90EF90DF90CF90BF90FA
:100B2000AF909F908F9008950F931F93FC01428385
:100B30005383648375830681178120853185040F73
:100B4000151F261F371F02871387248735871F919C
:100B50000F9108950F931F93FC010285138524853F
:100B60003585401B510B620B730B77FD02C08089EA
:100B700001C080E01F910F9108950F931F93CF93B1
:100B8000DF93EC01EE85FF85309709F009950E940F
:100B900044066E837F83888799870A811B812C8115
:100BA0003D81060F171F281F391F0A871B872C87B7
:100BB0003D87DF91CF911F910F910895FC018BE448
:100BC00091E09183808381E0808B778766871682AE
:100BD000178210861186F28BE18B22833383448344
:100BE000558322873387448755870895FC0177878B
:100BF000668708951F920F920FB60F9211242F93BC
:100C00003F938F939F93AF93BF9380917701909180
:100C10007801A0917901B0917A013091760123E0B9
:100C2000230F2D3720F40196A11DB11D05C026E824
:100C3000230F0296A11DB11D2093760180937701A9
:100C400090937801A0937901B0937A0180917B0110
:100C500090917C01A0917D01B0917E010196A11D32
:100C6000B11D80937B0190937C01A0937D01B09393
:100C70007E01BF91AF919F918F913F912F910F90E6
:100C80000FBE0F901F9018952FB7F89460917701C1
:100C9000709178018091790190917A012FBF089528
:100CA000789484B5826084BD84B5816084BD85B547
:100CB000826085BD85B5816085BDEEE6F0E080810E
:100CC00081608083E1E8F0E010828081826080832F
:100CD000808181608083E0E8F0E0808181608083B2
:100CE000E1EBF0E0808184608083E0EBF0E08081E4
:100CF00081608083EAE7F0E0808184608083808186
:100D0000826080838081816080838081806880832D
:100D10001092C10008958E3008F08E508770209197
:100D20000A0190E4299F90011124822B80937C007A
:100D300080917A00806480937A0080917A0086FDA9
:100D4000FCCF809178002091790090E0922B08955B
:100D5000833081F028F4813099F08230A1F0089539
:100D60008730A9F08830B9F08430D1F480918000C8
:100D70008F7D03C0809180008F77809380000895DD
:100D800084B58F7702C084B58F7D84BD089580912E
:100D9000B0008F7703C08091B0008F7D8093B0004A
:100DA0000895CF93DF9390E0FC01E458FF4F249126
:100DB000FC01E057FF4F8491882349F190E0880FB0
:100DC000991FFC01E255FF4FA591B4918C559F4F9F
:100DD000FC01C591D4919FB7611108C0F8948C9122
:100DE000209582238C93888182230AC0623051F43B
:100DF000F8948C91322F309583238C938881822BA9
:100E0000888304C0F8948C91822B8C939FBFDF91D0
:100E1000CF9108950F931F93CF93DF931F92CDB778
:100E2000DEB7282F30E0F901E859FF4F8491F9012E
:100E3000E458FF4F1491F901E057FF4F049100234C
:100E4000C9F0882321F069830E94A8066981E02FF8
:100E5000F0E0EE0FFF1FEC55FF4FA591B4919FB747
:100E6000F8948C91611103C01095812301C0812BEE
:100E70008C939FBF0F90DF91CF911F910F91089599
:100E8000FC01818D228D90E0805C9F4F821B910937
:100E90008F7399270895FC01918D828D981731F0F9
:100EA000828DE80FF11D858D90E008958FEF9FEF03
:100EB0000895FC01918D828D981761F0828DDF017C
:100EC000A80FB11D5D968C91928D9F5F9F73928F3D
:100ED00090E008958FEF9FEF08958DED98E0892BB6
:100EE00049F080E090E0892B29F00E94DD08811113
:100EF0000C9400000895FC01848DDF01A80FB11D42
:100F0000A35ABF4F2C91848D90E001968F7399273F
:100F1000848FA689B7892C93A089B1898C9180642C
:100F20008C93938D848D981306C00288F389E02DED
:100F300080818F7D80830895CF93DF93EC01888D2E
:100F40008823C9F0EA89FB89808185FD05C0A889CD
:100F5000B9898C9186FD0FC00FB607FCF5CF808153
:100F600085FFF2CFA889B9898C9185FFEDCFCE019D
:100F70000E947B07E7CFDF91CF910895CF92DF9258
:100F8000FF920F931F93CF93DF931F92CDB7DEB7DE
:100F90006C0181E0D60158968C9358975B969C9192
:100FA0005B975C968C915C97981307C05096ED9177
:100FB000FC915197808185FD2EC0F601038D10E0D4
:100FC0000F5F1F4F0F731127F02EF601848DF8125B
:100FD00011C00FB607FCF9CFD6015096ED91FC91E8
:100FE0005197808185FFF1CFC60169830E947B07FD
:100FF0006981EBCF838DE80FF11DE35AFF4F6083CA
:10100000D6015B960C935B975296ED91FC915397AA
:10101000808180620CC0D6015696ED91FC91579765
:1010200060835096ED91FC9151978081806480831C
:1010300081E090E00F90DF91CF911F910F91FF9091
:10104000DF90CF900895BF92CF92DF92EF92FF9200
:10105000CF93DF93EC016A017B01B22EE889F98915
:1010600082E08083411581EE580761057105A1F08A
:1010700060E079E08DE390E0A70196010E94FB0A11
:1010800021503109410951095695479537952795C2
:10109000211580E1380798F0E889F989108260E825
:1010A00074E88EE190E0A70196010E94FB0A2150AE
:1010B0003109410951095695479537952795EC8592
:1010C000FD853083EE85FF852083188EEC89FD89B0
:1010D000B082EA89FB89808180618083EA89FB890B
:1010E000808188608083EA89FB8980818068808331
:1010F000EA89FB8980818F7D8083DF91CF91FF908A
:10110000EF90DF90CF90BF9008951F920F920FB68F
:101110000F9211242F938F939F93EF93FF93E0915E
:101120008F01F09190018081E0919501F0919601FD
:1011300082FD12C09081809198018F5F8F73209102
:101140009901821751F0E0919801F0E0E158FE4FCB
:10115000958F8093980101C08081FF91EF919F91BD
:101160008F912F910F900FBE0F901F9018951F9287
:101170000F920FB60F9211242F933F934F935F93CB
:101180006F937F938F939F93AF93BF93EF93FF934F
:101190008FE791E00E947B07FF91EF91BF91AF91A4
:1011A0009F918F917F916F915F914F913F912F917F
:1011B0000F900FBE0F901F9018958FE791E00E943F
:1011C000400721E0892B09F420E0822F0895109236
:1011D00082011092810188EE93E0A0E0B0E080935C
:1011E000830190938401A0938501B093860185E5E6
:1011F00091E09093800180937F0185EC90E0909343
:101200008C0180938B0184EC90E090938E0180930D
:101210008D0180EC90E09093900180938F0181ECA0
:1012200090E0909392018093910182EC90E09093F2
:1012300094018093930186EC90E0909396018093C3
:101240009501109298011092990110929A011092B2
:101250009B01089508950E9450060E942A090E9449
:101260009400CDE6D7E00E9420012097E1F30E9490
:101270006D07F9CF0C94700B0C94700B0C94080C48
:10128000CF92DF92EF92FF920F931F93CF93DF9352
:101290007C016A01EB0100E010E00C151D0571F006
:1012A0006991D701ED91FC910190F081E02DC7018A
:1012B0000995892B19F00F5F1F4FEFCFC801DF9100
:1012C000CF911F910F91FF90EF90DF90CF900895F5
:1012D0006115710581F0DB010D900020E9F7AD018A
:1012E00041505109461B570BDC01ED91FC910280E6
:1012F000F381E02D099480E090E0089561E671E0CB
:101300000C9468090F931F93CF93DF93EC010E9415
:1013100068098C01CE010E947E09800F911FDF9128
:10132000CF911F910F910895611571058105910568
:1013300011F00C94EB0C0895CF93DF9300D000D004
:10134000CDB7DEB79B01AC01611571058105910533
:1013500069F069833A834B835C830E94E60C2981A0
:101360003A814B815C810E941D0B03C060E070E0FC
:10137000CB010F900F900F900F90DF91CF910895B8
:10138000CF92DF92EF92FF926B017C01621773079D
:101390008407950764F4CA01B9016C197D098E09A7
:1013A0009F090E949C096C0D7D1D8E1D9F1DFF9045
:1013B000EF90DF90CF9008954F925F926F927F925F
:1013C000AF92BF92CF92DF92EF92FF920F931F9353
:1013D000CF93DF93CDB7DEB729013A01621B730BC0
:1013E000840B950B29893A894B895C892A193B0919
:1013F0004C095D09298B3A8B4B8B5C8B9B01AC01B3
:1014000069897A898B899C890E94D70AE418F50832
:1014100006091709A80197010E941D0B2A0D3B1D03
:101420004C1D5D1DCA01B901DF91CF911F910F9134
:10143000FF90EF90DF90CF90BF90AF907F906F9034
:101440005F904F90089597F99F6780E870E060E0A3
:1014500008959FEF80EC089500240A94161617064D
:1014600018060906089500240A9412161306140695
:1014700005060895092E0394000C11F4882352F0F8
:10148000BB0F40F4BF2B11F460FF04C06F5F7F4FB0
:101490008F4F9F4F089557FD9058440F551F59F097
:1014A0005F3F71F04795880F97FB991F61F09F3F51
:1014B00079F087950895121613061406551FF2CF7A
:1014C0004695F1DF08C0161617061806991FF1CFCA
:1014D00086957105610508940895E894BB276627F1
:1014E0007727CB0197F908950BD0C4CFB5DF28F04B
:1014F000BADF18F0952309F0A6CFABCF1124EECFB9
:10150000CADFA0F3959FD1F3950F50E0551F629F5E
:10151000F001729FBB27F00DB11D639FAA27F00D4C
:10152000B11DAA1F649F6627B00DA11D661F829F73
:101530002227B00DA11D621F739FB00DA11D621F58
:10154000839FA00D611D221F749F3327A00D611D75
:10155000231F849F600D211D822F762F6A2F112457
:101560009F5750408AF0E1F088234AF0EE0FFF1FAA
:10157000BB1F661F771F881F91505040A9F79E3FE1
:10158000510570F060CFAACF5F3FECF3983EDCF3DB
:10159000869577956795B795F795E7959F5FC1F71E
:1015A000FE2B880F911D9695879597F90895DB017D
:1015B0008F939F930E943C0BBF91AF91A29F800D90
:1015C000911DA39F900DB29F900D1124089597FB3C
:1015D000072E16F4009407D077FD09D00E94470B20
:1015E00007FC05D03EF4909581959F4F0895709526
:1015F00061957F4F0895A1E21A2EAA1BBB1BFD0126
:101600000DC0AA1FBB1FEE1FFF1FA217B307E407E1
:10161000F50720F0A21BB30BE40BF50B661F771F39
:10162000881F991F1A9469F7609570958095909519
:101630009B01AC01BD01CF010895052E97FB1EF45F
:1016400000940E94340B57FD07D00E94FB0A07FC50
:1016500003D04EF40C94340B509540953095219561
:101660003F4F4F4F5F4F08959095809570956195CE
:101670007F4F8F4F9F4F08950E94610BA59F900D44
:10168000B49F900DA49F800D911D11240895AA1B55
:10169000BB1B51E107C0AA1FBB1FA617B70710F05D
:1016A000A61BB70B881F991F5A95A9F7809590958F
:1016B000BC01CD010895EE0FFF1F0590F491E02DC0
:1016C0000994A29FB001B39FC001A39F700D811D1B
:1016D0001124911DB29F700D811D1124911D08953B
:1016E000CF93DF938230910510F482E090E0E09197
:1016F0001E02F0911F0220E030E0A0E0B0E0309741
:1017000039F14081518148175907B8F048175907F6
:1017100071F482819381109729F013969C938E9394
:1017200012972CC090931F0280931E0227C0211590
:10173000310531F04217530718F0A901DB0101C050
:10174000EF019A01BD01DF010280F381E02DD7CFC7
:1017500021153105F9F0281B390B2430310580F4AF
:101760008A819B816115710521F0FB01938382833E
:1017700004C090931F0280931E02FE01329644C063
:10178000FE01E20FF31F81939193225031093983B7
:1017900028833AC020911C0230911D02232B41F472
:1017A000209102013091030130931D0220931C020D
:1017B00020910001309101012115310541F42DB72F
:1017C0003EB74091040150910501241B350BE09177
:1017D0001C02F0911D02E217F307A0F42E1B3F0B31
:1017E0002817390778F0AC014E5F5F4F2417350793
:1017F00048F04E0F5F1F50931D0240931C028193CF
:10180000919302C0E0E0F0E0CF01DF91CF91089525
:10181000CF93DF93009709F487C0FC0132971382BE
:101820001282C0911E02D0911F02209781F4208164
:101830003181280F391F80911C0290911D0282175F
:10184000930779F5F0931D02E0931C026DC0DE0151
:1018500020E030E0AE17BF0750F412964D915C9136
:1018600013979D014115510509F1DA01F3CFB383B7
:10187000A28340815181840F951F8A179B0771F4C1
:101880008D919C911197840F951F0296918380836F
:1018900012968D919C911397938382832115310524
:1018A00029F4F0931F02E0931E023EC0D901139663
:1018B000FC93EE9312974D915D91A40FB51FEA171B
:1018C000FB0779F480819181840F951F0296D901DD
:1018D00011969C938E938281938113969C938E9301
:1018E0001297E0E0F0E08A819B81009719F0FE01F9
:1018F000EC01F9CFCE01029628813981820F931F26
:1019000020911C0230911D022817390769F4309785
:1019100029F410921F0210921E0202C0138212823A
:10192000D0931D02C0931C02DF91CF9108958F9236
:101930009F92AF92BF92CF92DF92EF92FF92CF939E
:10194000DF93EC01688179818A819B816115710542
:101950008105910521F464E279ED8BE597E02DE1B5
:1019600033EF41E050E00E941D0B49015A019B01F9
:10197000AC01A7EAB1E40E943C0B6B017C01ACEE28
:10198000B4EFA50194010E94F70CC60ED71EE81E05
:10199000F91EF7FE06C081E0C81AD108E10880E808
:1019A000F80AC882D982EA82FB82C701B6019F7712
:1019B000DF91CF91FF90EF90DF90CF90BF90AF90ED
:1019C0009F908F9008950E94970C089586E091E073
:1019D0000E94970C0895609306017093070180930D
:1019E0000801909309010895B7FF0C943C0B0E94E5
:0C19F0003C0B821B930B0895F894FFCF72
:1019FC00000020028000010000000102000700131B
:101A0C000005000D0012000C00100006000B000A6F
:101A1C000003001100040008000900416C676F20EE
:101A2C00612070617361646F20636F6E20646972F2
:101A3C00656363696F6E00000000009405AA05BD24
:101A4C000500000000BE074009400759074B079CE2
:101A5C00070D0A006E616E00696E66006F76660097
:021A6C002E004A
:00000001FF
