:100000000C945D000C9485000C9485000C94850084
:100010000C9485000C9485000C9485000C9485004C
:100020000C9485000C9485000C9485000C9485003C
:100030000C9485000C94F6030C9485000C948500B8
:100040000C94E3040C9485000C94B9070C94EB0712
:100050000C9485000C9485000C9485000C9485000C
:100060000C9485000C94850000000008000201003B
:100070000003040700000000000000000102040863
:100080001020408001020408102001020408102002
:10009000040404040404040402020202020203032E
:1000A0000303030300000000250028002B000000CC
:1000B0000000240027002A001B0811241FBECFEFD8
:1000C000D8E0DEBFCDBF11E0A0E0B1E0E0EEF6E1A8
:1000D00002C005900D92AC3DB107D9F722E0ACED1E
:1000E000B1E001C01D92AE3CB207E1F710E0CAEBEF
:1000F000D0E004C02297FE010E94340AC83BD10719
:10010000C9F70E945F080C946E0B0C9400000F93CB
:100110001F93CF93DF9340ED57E060E070E08DEEEA
:1001200091E00E944A0420E835E240E050E06DE2B0
:1001300072E08DEE91E00E945D048DEE91E00E94F0
:1001400047046BE271E080911E0290911F020E94B1
:10015000B0086AE070E080E090E00E945C0541E059
:1001600060E08DEE91E00E94C8048AEB90E00E946E
:100170006E08EC010E94D201D093DD01C093DC0136
:10018000C0E0D0E0E091DC01F091DD018E01075F7D
:100190001F4F000F111FE00FF11F61E080810E94CF
:1001A0000506E091DC01F091DD012196CE01880F7A
:1001B000991FE80FF91F61E080810E940506E09118
:1001C000DC01F091DD01E00FF11F61E080810E9410
:1001D0003E06C830D105B1F66091DC017091DD01B9
:1001E00080E090E0E1E0F0E020E030E0AB01480F9B
:1001F000591FDA01A20FB31F9396FC93EE939297C7
:100200002E5F3F4F20313105A1F740968038910590
:1002100059F780E1809381001092800083E0809301
:10022000EA0182E19AE79093EC018093EB019093CD
:1002300087008093860083E18093810080EF93E0C4
:100240009093E9018093E80181E080936F0026E0BC
:1002500040E855E260E070E08DE292E0DF91CF91FE
:100260001F910F910C945707CF92DF92EF92FF925C
:100270000F931F930E942D05672B682B692B41F468
:100280000E942D05623071058105910508F478C042
:100290008DEE91E00E941D046093DE017093DF01FA
:1002A0008093E0019093E1010091E2011091E3015C
:1002B0002091E4013091E5016017710782079307EF
:1002C00040F46093E2017093E3018093E401909322
:1002D000E5010091E2011091E3012091E4013091E8
:1002E000E5016B017C01C01AD10AE20AF30A970109
:1002F00086010A3F11052105310508F441C06093CC
:10030000E2017093E3018093E4019093E5018DEEA7
:1003100091E00E9447046DE371E080911E0290918C
:100320001F020E94B00865E471E080911E02909166
:100330001F020E94B0080E942D05AB01BC012AE0FB
:1003400030E080911E0290911F020E947A0967E4BA
:1003500071E080911E0290911F020E94B00865E03A
:1003600070E080E090E00E945C056AE070E080E070
:1003700090E00E945C0561E08DEE91E00E948A04AD
:100380008091DC019091DD010E9451028091DC019D
:100390009091DD011F910F91FF90EF90DF90CF9032
:1003A0000C94AB02EF92FF920F931F93CF93DF93C6
:1003B000EC0180E1EBE0F1E0DE01129601900D929C
:1003C0008A95E1F780E1EBE1F1E0DE0152960190E0
:1003D0000D928A95E1F781E090E00E946E08998382
:1003E0008883FE01EE55FF4F24E030E03183208307
:1003F000329683E090E0918380833296318320832C
:100400003296918380837E0128EBE20EF11C81E01D
:1004100090E0D7018D939C9382E090E00E94700859
:100420008E0106551F4FF80191838083D7018D916E
:100430009C918138BFE39B0718F4880F991F02C075
:100440008FEF9FEF0E947008FE01E455FF4F9183EC
:100450008083D801ED91FC9125E030E03183208349
:10046000FC0131832083FE01E255FF4F81E090E0E3
:100470009183808332969183808332961182108299
:10048000CC54DF4F40E050E060E87FE3488359837D
:100490006A837B83DF91CF911F910F91FF90EF9043
:1004A00008959F92AF92BF92CF92DF92EF92FF9208
:1004B0000F931F93CF93DF93EC018EE00E94BF0553
:1004C000BC01882777FD8095982F1F921F921F925D
:1004D00037E0932E9F92A12CB12C6501EE24EA9473
:1004E00013E0F12E00E010E020E030E0A9010E94CE
:1004F0008E09FE01EE55FF4F27E030E0261B370B3B
:10050000318320838FE00E94BF05BC01882777FDDF
:100510008095982F1F921F921F929F9220E030E0AB
:10052000A9010E948E09CC55DF4F798368838DB76E
:100530009EB708960FB6F8949EBF0FBE8DBFDF9191
:10054000CF911F910F91FF90EF90DF90CF90BF90D0
:10055000AF909F9008958F929F92AF92BF92CF924B
:10056000DF92EF92FF920F931F93CF93DF93EC01F3
:10057000FC01E255FF4F0190F081E02D13E0EE0FFA
:10058000FF1F1A95E1F7DC01A055BF4F8D919C919B
:10059000E80FF91F7196EE0FFF1FEC0FFD1F118280
:1005A0001082FE01E854FF4F4081518180E090E0CD
:1005B000BE0166557F4F8E0104551F4F8417950766
:1005C0001CF59C01220F331FDB01ED91FC91E20F22
:1005D000F31F0190F081E02DD801ED90FC90E20E28
:1005E000F31ED7012D913C91A3E0EE0FFF1FAA95BA
:1005F000E1F7E20FF31F7196EE0FFF1FEC0FFD1FE7
:10060000118210820196DACF6E01E12CF12C61E0AB
:10061000F60182810E943E068E0158E0A52EB12C83
:10062000F801EE0DFF1D82A093A0682DD80152960F
:100630008C910E943E06892829F461E0F8018289A4
:100640000E943E06F1E0AF1AB1080E5F1F4FA114E1
:10065000B10431F760E0D60112968C910E943E06FB
:10066000B2E0CB0ED11CE0E1EE0EF11CF0E8EF168B
:10067000F10469F6DF91CF911F910F91FF90EF90F8
:10068000DF90CF90BF90AF909F908F9008958F9202
:100690009F92AF92BF92CF92DF92EF92FF920F9311
:1006A0001F93CF93DF93EC0160E571E08DE292E060
:1006B0000E94B0087E0188EBE80EF11CD7016D9115
:1006C0007C914AE050E08DE292E00E94720965E779
:1006D00071E08DE292E00E94BD0800E010E06E0142
:1006E000BAEACB0ED11C5E01ECEAAE0EB11CF701EA
:1006F000808191810817190764F54801880C991CBD
:10070000D601ED91FC91E80DF91D608171814AE0FF
:1007100050E08DE292E00E94720960E671E08DE2A5
:1007200092E00E94B008D501ED91FC91E80DF91D11
:10073000608171814AE050E08DE292E00E9472098E
:1007400062E671E08DE292E00E94B0080F5F1F4FF9
:10075000CECF65E771E08DE292E00E94BD08D7013F
:100760004D915C9180E090E0BE0166557F4F8E0117
:1007700004551F4FEE24E394F12C841795071CF5C4
:100780009C01220F331FDB01ED91FC91E20FF31F5F
:100790000190F081E02DD801CD90DC90C20ED31EE7
:1007A000D6012D913C91A3E0EE0FFF1FAA95E1F732
:1007B000E20FF31F7196EE0FFF1FEC0FFD1FF1828A
:1007C000E0820196DACFDF91CF911F910F91FF90D8
:1007D000EF90DF90CF90BF90AF909F908F90089553
:1007E0008091E6019091E7010C9447031F920F92CC
:1007F0000FB60F9211242F933F934F935F936F93F4
:100800007F938F939F93AF93BF93EF93FF93E09169
:10081000E801F091E9010995FF91EF91BF91AF9146
:100820009F918F917F916F915F914F913F912F9108
:100830000F900FBE0F901F9018950C942D050F93DD
:100840001F93CF93DF93EC01662359F00E942D058F
:1008500069837A838B839C83DF91CF911F910F9162
:1008600008950E942D0509811A812B813C81601B0E
:10087000710B820B930B623371058105910530F783
:1008800063E070E080E090E00E945C05EACF60E009
:100890000C941F04FC0113AA14AA15AA16AA11820B
:1008A000128213821482411551056105710521F0F0
:1008B000CB01BA010C945C050895FB01BA01A901B2
:1008C000DC01D296FC93EE93D19726E0CF010C94F5
:1008D00057071F93CF93DF93EC01162F66E671E065
:1008E00089A99AA90E94B0084AE050E0612F89A91D
:1008F0009AA90E9487096DE671E089A99AA90E94C8
:10090000B00862E370E080E090E0DF91CF911F914A
:100910000C945C051F93CF93DF93EC01162F8D8110
:10092000882389F189A99AA9DC01ED91FC910480C1
:10093000F581E02D0995892BA9F307C026373105EC
:1009400019F12835310509F41D8289A99AA9DC011C
:10095000ED91FC910480F581E02D0995181619069A
:1009600094F489A99AA9DC01ED91FC910680F781A4
:10097000E02D09959C01332723363105F9F6612FC7
:10098000CE010E94690483E6DF91CF911F91089503
:100990000F931F93CF93DF931F92CDB7DEB78C01D8
:1009A000662349F081E0F801858360E0C80149834E
:1009B0000E948A044981F80145830F90DF91CF910D
:1009C0001F910F9108951F920F920FB60F9211244D
:1009D0002F933F938F939F93AF93BF938091250263
:1009E00090912602A0912702B09128023091240212
:1009F00023E0230F2D3720F40196A11DB11D05C062
:100A000026E8230F0296A11DB11D20932402809396
:100A1000250290932602A0932702B093280280918A
:100A2000290290912A02A0912B02B0912C020196EA
:100A3000A11DB11D8093290290932A02A0932B023D
:100A4000B0932C02BF91AF919F918F913F912F91C5
:100A50000F900FBE0F901F9018952FB7F8946091CC
:100A600025027091260280912702909128022FBFC3
:100A700008953FB7F8948091290290912A02A0919D
:100A80002B02B0912C0226B5A89B05C02F3F19F070
:100A90000196A11DB11D3FBF6627782F892F9A2F80
:100AA000620F711D811D911D42E0660F771F881F27
:100AB000991F4A95D1F70895CF92DF92EF92FF9256
:100AC000CF93DF936B017C010E943905EB01C114C8
:100AD000D104E104F10489F00E94D5090E9439058E
:100AE0006C1B7D0B683E734090F381E0C81AD108FF
:100AF000E108F108C851DC4FEACFDF91CF91FF90B8
:100B0000EF90DF90CF900895789484B5826084BD93
:100B100084B5816084BD85B5826085BD85B5816001
:100B200085BDEEE6F0E0808181608083E1E8F0E061
:100B30001082808182608083808181608083E0E890
:100B4000F0E0808181608083E1EBF0E0808184606F
:100B50008083E0EBF0E0808181608083EAE7F0E071
:100B600080818460808380818260808380818160D5
:100B700080838081806880831092C10008958E30C8
:100B800008F08E50877020910A0190E4299F90010F
:100B90001124822B80937C0080917A008064809362
:100BA0007A0080917A0086FDFCCF809178002091B8
:100BB000790090E0922B0895833081F028F4813001
:100BC00099F08230A1F008958730A9F08830B9F00B
:100BD0008430D1F4809180008F7D03C080918000AB
:100BE0008F7780938000089584B58F7702C084B595
:100BF0008F7D84BD08958091B0008F7703C0809170
:100C0000B0008F7D8093B0000895CF93DF9390E084
:100C1000FC01E458FF4F2491FC01E057FF4F849101
:100C2000882349F190E0880F991FFC01E255FF4F9E
:100C3000A591B4918C559F4FFC01C591D4919FB75C
:100C4000611108C0F8948C91209582238C9388813F
:100C500082230AC0623051F4F8948C91322F30957F
:100C600083238C938881822B888304C0F8948C9191
:100C7000822B8C939FBFDF91CF9108950F931F9389
:100C8000CF93DF931F92CDB7DEB7282F30E0F90165
:100C9000E859FF4F8491F901E458FF4F1491F9018D
:100CA000E057FF4F04910023C9F0882321F06983A6
:100CB0000E94DC056981E02FF0E0EE0FFF1FEC558C
:100CC000FF4FA591B4919FB7F8948C91611103C027
:100CD0001095812301C0812B8C939FBF0F90DF91D2
:100CE000CF911F910F910895FC01818D228D90E08D
:100CF000805C9F4F821B91098F7399270895FC0197
:100D0000918D828D981731F0828DE80FF11D858DC0
:100D100090E008958FEF9FEF0895FC01918D828DF3
:100D2000981761F0828DDF01A80FB11D5D968C913F
:100D3000928D9F5F9F73928F90E008958FEF9FEF4A
:100D4000089581E198E0892B49F080E090E0892BBB
:100D500029F00E94110881110C9400000895FC01F3
:100D6000848DDF01A80FB11DA35ABF4F2C91848D34
:100D700090E001968F739927848FA689B7892C9369
:100D8000A089B1898C9180648C93938D848D981304
:100D900006C00288F389E02D80818F7D80830895CD
:100DA000CF93DF93EC01888D8823C9F0EA89FB8912
:100DB000808185FD05C0A889B9898C9186FD0FC009
:100DC0000FB607FCF5CF808185FFF2CFA889B989DE
:100DD0008C9185FFEDCFCE010E94AF06E7CFDF916A
:100DE000CF910895CF92DF92FF920F931F93CF93ED
:100DF000DF931F92CDB7DEB76C0181E0D601589624
:100E00008C9358975B969C915B975C968C915C97C2
:100E1000981307C05096ED91FC915197808185FD04
:100E20002EC0F601038D10E00F5F1F4F0F731127C7
:100E3000F02EF601848DF81211C00FB607FCF9CF21
:100E4000D6015096ED91FC915197808185FFF1CFAD
:100E5000C60169830E94AF066981EBCF838DE80FDD
:100E6000F11DE35AFF4F6083D6015B960C935B97AD
:100E70005296ED91FC915397808180620CC0D6010F
:100E80005696ED91FC91579760835096ED91FC91A9
:100E9000519780818064808381E090E00F90DF91A2
:100EA000CF911F910F91FF90DF90CF900895BF9247
:100EB000CF92DF92EF92FF92CF93DF93EC016A0122
:100EC0007B01B22EE889F98982E08083411581EEA9
:100ED000580761057105A1F060E079E08DE390E0CD
:100EE000A70196010E94E6092150310941095109E3
:100EF0005695479537952795211580E1380798F045
:100F0000E889F989108260E874E88EE190E0A70131
:100F100096010E94E609215031094109510956956F
:100F2000479537952795EC85FD853083EE85FF85C0
:100F30002083188EEC89FD89B082EA89FB89808143
:100F400080618083EA89FB89808188608083EA8967
:100F5000FB89808180688083EA89FB8980818F7D1D
:100F60008083DF91CF91FF90EF90DF90CF90BF9083
:100F700008951F920F920FB60F9211242F938F9303
:100F80009F93EF93FF93E0913D02F0913E028081A9
:100F9000E0914302F091440282FD12C09081809161
:100FA00046028F5F8F7320914702821751F0E091C4
:100FB0004602F0E0E35DFD4F958F8093460201C04D
:100FC0008081FF91EF919F918F912F910F900FBE94
:100FD0000F901F9018951F920F920FB60F92112429
:100FE0002F933F934F935F936F937F938F939F9331
:100FF000AF93BF93EF93FF938DE292E00E94AF0611
:10100000FF91EF91BF91AF919F918F917F916F91E0
:101010005F914F913F912F910F900FBE0F901F90B6
:1010200018958DE292E00E94740621E0892B09F464
:1010300020E0822F08951092300210922F0288EE45
:1010400093E0A0E0B0E08093310290933202A0934D
:101050003302B093340282EC91E090932E0280939D
:101060002D0285EC90E090933A028093390284EC53
:1010700090E090933C0280933B0280EC90E0909350
:101080003E0280933D0281EC90E090934002809379
:101090003F0282EC90E0909342028093410286EC02
:1010A00090E0909344028093430210924602109283
:1010B00047021092480210924902089508950E9432
:1010C00084050E945E080E948700C1EAD6E00E9463
:1010D00034012097E1F30E94A106F9CF0C94470A4E
:1010E0000C94470ACF92DF92EF92FF920F931F93D7
:1010F000CF93DF937C016A01EB0100E010E00C1557
:101100001D0571F06991D701ED91FC910190F0817D
:10111000E02DC7010995892B19F00F5F1F4FEFCF05
:10112000C801DF91CF911F910F91FF90EF90DF9059
:10113000CF9008956115710581F0DB010D900020BD
:10114000E9F7AD0141505109461B570BDC01ED9108
:10115000FC910280F381E02D099480E090E00895F5
:101160000C949A08DC01ED91FC910190F081E02D46
:10117000099463E771E00C949A080F931F93CF933F
:10118000DF93EC010E949A088C01CE010E94B908FD
:10119000800F911FDF91CF911F910F9108958F9232
:1011A0009F92AF92BF92CF92DF92EF92FF920F93F6
:1011B0001F93CF93DF93CDB7DEB7A1970FB6F89407
:1011C000DEBF0FBECDBF7C01C42EE52FCB01D22EDA
:1011D00019A221E02D1510F02AE0D22E8E010F5D0C
:1011E0001F4F8D2C912CA12CB12C6C2D7E2FA50185
:1011F00094010E94E6098C2DD29E80191124015081
:1012000011098A3014F4805D01C0895CF801808383
:10121000211531054105510521F0C22EE32FCA01E8
:10122000E4CFB801C7010E949A08A1960FB6F894BE
:10123000DEBF0FBECDBFDF91CF911F910F91FF9009
:10124000EF90DF90CF90BF90AF909F908F900895D8
:10125000CF92DF92EF92FF920F931F93CF93DF9382
:10126000EC016A017B012115310579F4E881F981EE
:101270000190F081E02D642FDF91CF911F910F91AC
:10128000FF90EF90DF90CF9009942A303105E9F478
:1012900077FF1AC06DE20E94B2088C0144275527DF
:1012A000BA014C195D096E097F092AE0CE010E943E
:1012B000CF08800F911FDF91CF911F910F91FF9069
:1012C000EF90DF90CF9008952AE0B701A601CE01FC
:1012D000DF91CF911F910F91FF90EF90DF90CF9012
:1012E0000C94CF089A01AB01662757FD6095762FC5
:1012F0000C9428092115310541F4DC01ED91FC9194
:101300000190F081E02D642F09940C94CF089A018C
:10131000462F50E060E070E00C947A094F925F92A3
:101320006F927F92AF92BF92CF92DF92EF92FF9235
:101330000F931F93CF93DF93CDB7DEB729013A0107
:10134000621B730B840B950B29893A894B895C8945
:101350002A193B094C095D09298B3A8B4B8B5C8B15
:101360009B01AC0169897A898B899C890E94D60985
:10137000E418F50806091709A80197010E94080A50
:101380002A0D3B1D4C1D5D1DCA01B901DF91CF9196
:101390001F910F91FF90EF90DF90CF90BF90AF9093
:1013A0007F906F905F904F9008950895DB018F9329
:1013B0009F930E94270ABF91AF91A29F800D911D1C
:1013C000A39F900DB29F900D11240895A1E21A2EB3
:1013D000AA1BBB1BFD010DC0AA1FBB1FEE1FFF1FD9
:1013E000A217B307E407F50720F0A21BB30BE40B29
:1013F000F50B661F771F881F991F1A9469F7609570
:101400007095809590959B01AC01BD01CF01089529
:10141000052E97FB1EF400940E941F0A57FD07D06B
:101420000E94E60907FC03D04EF40C941F0A509565
:101430004095309521953F4F4F4F5F4F08959095C0
:101440008095709561957F4F8F4F9F4F08950E94B3
:10145000380AA59F900DB49F900DA49F800D911DFB
:1014600011240895EE0FFF1F0590F491E02D0994CB
:10147000A29FB001B39FC001A39F700D811D1124D5
:10148000911DB29F700D811D1124911D0895CF9360
:10149000DF938230910510F482E090E0E091CC027D
:1014A000F091CD0220E030E0A0E0B0E0309739F1DB
:1014B0004081518148175907B8F04817590771F40E
:1014C00082819381109729F013969C938E931297A3
:1014D0002CC09093CD028093CC0227C021153105FA
:1014E00031F04217530718F0A901DB0101C0EF01E9
:1014F0009A01BD01DF010280F381E02DD7CF2115D4
:101500003105F9F0281B390B2430310580F48A812C
:101510009B816115710521F0FB019383828304C0D7
:101520009093CD028093CC02FE01329644C0FE011E
:10153000E20FF31F8193919322503109398328835D
:101540003AC02091CA023091CB02232B41F4209162
:101550000201309103013093CB022093CA02209103
:101560000001309101012115310541F42DB73EB73D
:101570004091040150910501241B350BE091CA02F2
:10158000F091CB02E217F307A0F42E1B3F0B2817B4
:10159000390778F0AC014E5F5F4F2417350748F0EC
:1015A0004E0F5F1F5093CB024093CA0281939193D9
:1015B00002C0E0E0F0E0CF01DF91CF910895CF933A
:1015C000DF93009709F487C0FC01329713821282DF
:1015D000C091CC02D091CD02209781F4208131813D
:1015E000280F391F8091CA029091CB02821793076E
:1015F00079F5F093CB02E093CA026DC0DE0120E0E2
:1016000030E0AE17BF0750F412964D915C911397DE
:101610009D014115510509F1DA01F3CFB383A2838E
:1016200040815181840F951F8A179B0771F48D911A
:101630009C911197840F951F029691838083129637
:101640008D919C911397938382832115310529F401
:10165000F093CD02E093CC023EC0D9011396FC93E7
:10166000EE9312974D915D91A40FB51FEA17FB07FA
:1016700079F480819181840F951F0296D90111968A
:101680009C938E938281938113969C938E93129751
:10169000E0E0F0E08A819B81009719F0FE01EC0107
:1016A000F9CFCE01029628813981820F931F2091B4
:1016B000CA023091CB022817390769F4309729F410
:1016C0001092CD021092CC0202C013821282D093EB
:1016D000CB02C093CA02DF91CF910895F894FFCF57
:1016E0000000CE028000010000000102000700138C
:1016F0000005000D0012000C00100006000B000A8F
:101700000003001100040008000900564D44505623
:101710005F317C315F564D4450560D0A00564D44A2
:1017200050455F31007C005F564D4450450D0A0026
:10173000546F74616C20646520626F6C61733A0051
:101740002D00203B2000564D4450435F005F564D16
:101750004450430D0A004572726F723A204174740E
:10176000656D707420746F207365742061207265DC
:1017700061642D6F6E6C79207661726961626C654F
:10178000206F7220646174612074797065206E6FBF
:101790007420737570706F727465640D0A000000B8
:1017A0000000F206720874068D067F06D0066E6190
:0C17B0006E00696E66006F7666002E0009
:00000001FF
